:020000040800F2
:1000000000000320416C0008916A0008936A000810
:10001000956A0008976A0008996A000800000000C5
:100020000000000000000000000000009B6A0008C3
:100030009D6A0008000000009F6A0008A16A00088D
:10004000916C0008916C0008916C0008A96A000886
:10005000916C0008916C0008916C0008916C00088C
:10006000916C0008916C0008916C0008916C00087C
:10007000916C0008916C0008916C0008916C00086C
:10008000916C0008916C0008916C0008916C00085C
:10009000916C0008916C0008916C0008916C00084C
:1000A000916C0008916C0008916C0008916C00083C
:1000B000916C0008916C0008916C0008916C00082C
:1000C000916C0008916C0008916C0008916C00081C
:1000D000916C0008916C0008916C0008916C00080C
:1000E000916C0008916C0008916C0008916C0008FC
:1000F000B16A0008B96A0008916C0008916C0008A8
:10010000916C0008916C0008916C0008916C0008DB
:10011000916C0008916C0008916C0008916C0008CB
:10012000916C0008916C0008916C0008916C0008BB
:0C013000916C0008916C0008916C0008B4
:1001400010B5054C237833B9044B13B10448AFF311
:1001500000800123237010BD100200200000000069
:10016000AC6F000808B5034B1BB103490348AFF35C
:10017000008008BD0000000014020020AC6F0008E1
:1001800053B94AB9002908BF00281CBF4FF0FF31FE
:100190004FF0FF3000F072B9ADF1080C6DE904CEFC
:1001A00000F006F8DDF804E0DDE9022304B0704752
:1001B0002DE9F047089E04468846002B4BD18A4221
:1001C000154667D9B2FA82F24AB1C2F1200701FAA4
:1001D00002F320FA07F7954047EA030894404FEAF4
:1001E000154E230CB8FBFEF71FFA85FC0EFB178893
:1001F00043EA084307FB0CF1994209D9EB1807F1D0
:10020000FF3080F01B81994240F21881023F2B445D
:100210005B1AA4B2B3FBFEF00EFB103344EA0344B6
:1002200000FB0CFCA44509D92C1900F1FF3380F028
:100230000781A44540F2048102382C4440EA07407B
:10024000A4EB0C0400271EB1D4400023C6E90043F0
:100250003946BDE8F0878B4209D9002E00F0EB80CB
:100260000027C6E9000138463946BDE8F087B3FAF1
:1002700083F7002F47D18B4202D3824200F2FA80EB
:10028000841A61EB030301209846002EE0D0C6E9F2
:100290000048DDE702B9FFDEB2FA82F2002A40F040
:1002A0008F80491B4FEA154E1FFA85F80127B1FBD5
:1002B000FEFC230C0EFB1C1143EA014308FB0CF16E
:1002C000994207D9EB180CF1FF3002D2994200F2A3
:1002D000CD808446591AA3B2B1FBFEF00EFB101478
:1002E00043EA044408FB00F8A04507D92C1900F1A3
:1002F000FF3302D2A04500F2B6801846A4EB0804F2
:1003000040EA0C409FE7C7F1200CBB4022FA0CFEEC
:100310004EEA030E01FA07F420FA0CF521FA0CF369
:100320004FEA1E482543B3FBF8F92C0C08FB1933A0
:100330001FFA8EFA44EA034309FB0AF49C4202FACC
:1003400007F200FA07F10BD91EEB030309F1FF30A6
:1003500080F087809C4240F28480A9F102097344B6
:100360001B1BADB2B3FBF8F008FB103345EA0344A6
:1003700000FB0AFAA24508D91EEB040400F1FF3382
:100380006BD2A24569D90238744440EA0940A0FB07
:100390000289A4EB0A044C45C2464B4654D351D0C3
:1003A000002E69D0B1EB0A0564EB030404FA0CFCDF
:1003B000FD40FC404CEA0505C6E90054002747E72C
:1003C000C2F1200320FA03F7954001FA02F021FA66
:1003D00003F34FEA154E3843010CB3FBFEF71FFA47
:1003E00085F80EFB173341EA034107FB08F38B4204
:1003F00004FA02F407D9691807F1FF3C2FD28B42A7
:100400002DD9023F2944CB1A81B2B3FBFEF00EFB7B
:10041000103341EA034100FB08F38B4207D9691806
:1004200000F1FF3C17D28B4215D902382944C91A72
:1004300040EA07473BE73746304609E70746E7E625
:100440001846FBE64145ABD2B8EB020A69EB0E0257
:1004500001381346A4E76046E9E7184695E7674682
:10046000D1E781467CE702382C4447E7ACF1020C27
:100470002B442FE7384608E73746E9E6704700BFC8
:10048000114B1B680BB90120704710B5044601F0F1
:1004900011FB0D4B1A684FF47A73B3FBF2F3B0FB08
:1004A000F3F000F0B9FB68B90F2C01D901200AE084
:1004B000002221464FF0FF3000F062FB024B5C60EF
:1004C000002000E0012010BD0400002010B5094A02
:1004D000136843F480731360032000F03FFB002097
:1004E000FFF7CEFF10B10124204610BD044606F0F0
:1004F0000BF9F9E700400058034A136803490968FB
:100500000B441360704700BF440600200400002025
:10051000014B1868704700BF44060020014B586823
:10052000704700BF0400002038B50446FFF7F0FF15
:100530000546B4F1FF3F02D0044B1B681C44FFF793
:10054000E7FF401BA042FAD338BD00BF04000020E3
:1005500030B583B000230193002800F0DE8004460C
:10056000436D03B323689A6812F0005F05D09A6860
:1005700022F0204222F03F029A602268936813F032
:10058000805F1DD1936823F0104323F03F0343F0B5
:1005900080539360624B1B689B09624AA2FB032352
:1005A0009B09019309E006F0D3F80023A36584F8C2
:1005B0005030D7E7019B013B0193019B002BF9D100
:1005C00023689A6812F0805F78D1626D42F0100261
:1005D0006265A26D42F00102A26501209A6812F0E4
:1005E000040F6DD00121626D12F0100F40F08E806B
:1005F000002940F08B80626D22F4817242F0020289
:1006000062659B6813F0010F0BD1474B9B6813F099
:10061000010F06D1636845498A6822F47C121343AE
:100620008B60627E636B43EA4233E2681343A268E5
:10063000134394F8202043EA0243012A42D0A26ADD
:1006400022B102F47072E16A0A4313432168CD6853
:10065000374A2A401343CB6023689A6812F0040F8C
:1006600035D001219A6812F0080F32D00122B1B9B9
:10067000AAB9217E94F83020520042EA8131DA682A
:1006800022F4804222F002020A43DA6094F8383001
:10069000012B20D02268136923F001031361236921
:1006A000012B2AD02268136B23F00F031363636DB1
:1006B00023F0030343F0010363652CE000208DE782
:1006C000002190E7626A013A43EA4243B7E700211A
:1006D000C8E70022CBE721680B6923F4FF6323F00E
:1006E0000403E26B256C2A43656C2A43A56C2A43FC
:1006F000134343F001030B61D1E721680B6B23F037
:100700000F03E269013A13430B63D0E7636D43F0D3
:1007100010036365012003B030BD0120FBE700BF7B
:1007200024000020632D3E05000004500003045007
:1007300007C0F0FFF0B482B00022019290F8502080
:10074000012A00F004820346012280F85020066846
:10075000B06810F0040F0AD05A6D42F020025A65BA
:100760000120002283F8502002B0F0BC70474D6891
:100770000C6830362A0A920002F00C02B05805F0DC
:100780001F051F27AF4020EA0700C4F38464AC4074
:100790002043B0501A68906810F0040F6AD001200E
:1007A000946814F0080F67D0012450BB4CBB0E684E
:1007B0008D681432700E800000F004001458C6F3E7
:1007C00004560727B74024EA0704B5402C431450C9
:1007D0004C691868C268C2F3C102520004FA02F2FE
:1007E0000D69042D4AD00E68603050F82570B64C63
:1007F0003C4006F0F8463243144344F0004440F8CD
:1008000025401868826812F0010F40F09A810A684A
:10081000CD68D0F8B040C2F3120624EA060405F011
:100820001806AA4DF5402A40C2F312022243C0F82E
:10083000B020C868A64A90427BD00A68A5490A42FF
:1008400000F08181A449896801F0E074A3488068C0
:1008500010F0010F40F00B81A148824200F00D81A1
:10086000A048824200F046819F48824200F05681B3
:10087000002076E7002093E7002496E7026E046EDE
:10088000C4F384640A68C2F312057DBBC2F38462B8
:10089000944230D01C68626E606EC0F384600A6857
:1008A000C2F3120565BBC2F3846290422DD01C686E
:1008B000A26EA06EC0F384600A68C2F312054DBB3D
:1008C000C2F3846290422AD01C68E26EE06EC0F3EC
:1008D00084600A68C2F3120535BBC2F38462904299
:1008E0008FD1E26E22F00042E2668AE792FAA2F22B
:1008F000B2FA82F2CCE7026E22F000420266C9E749
:1009000092FAA2F2B2FA82F2CFE7626E22F00042CD
:100910006266CCE792FAA2F2B2FA82F2D2E7A26E53
:1009200022F00042A266CFE792FAA2F2B2FA82F275
:10093000D5E71D680A68C2F3120696BB900E013017
:1009400000F01F0009288CBF00200120002852D091
:100950009EBB940E0134A40604F0F844B6BB900E7E
:10096000013000F01F070120B8400443C6BB920EBF
:10097000013202F01F0202EB4202120522438C6890
:100980001435500E800000F004002E58C2F30452BB
:100990000727974026EA070604FA02F232432A5054
:1009A0004BE792FAA2F0B0FA80F0013000F01F009D
:1009B00009288CBF00200120C8E792FAA2F4B4FAFB
:1009C00084F40134A40604F0F844C7E792FAA2F0D4
:1009D000B0FA80F0013000F01F070120B840C4E7F2
:1009E00092FAA2F2B2FA82F2013202F01F0202EB94
:1009F00042021205C2E7CEB9940E0134A40604F0F7
:100A0000F844E6B9900E013000F01F070120B8400D
:100A10000443F6B9900E013000F01F0000EB4002D5
:100A20001E3A120542F000722243A8E792FAA2F49D
:100A3000B4FA84F40134A40604F0F844E1E792FA2D
:100A4000A2F0B0FA80F0013000F01F070120B8409A
:100A5000DEE792FAA2F0B0FA80F0013000F01F0059
:100A600000EB40021E3A120542F00072DCE75A6DBC
:100A700042F020025A65012073E611F4000F7FF462
:100A8000EFAE1968154A914201D0002069E644F49E
:100A900000021148816821F0E0710A438260134A24
:100AA000126892091249A1FB0212920902EB42025A
:100AB0009100019102E0019A013A0192019A002A03
:100AC000F9D100204DE600BF00F0FF03FFFF070053
:100AD00000007F4000000880000304500000045024
:100AE000000052C7000084CB0100008024000020D9
:100AF000632D3E0511F0807F7FF4B6AE1968154A6C
:100B0000914201D000202CE644F0807212488168A6
:100B100021F0E0710A438260002022E611F4800F88
:100B200013D119680B4A914201D0002019E644F410
:100B300080020948816821F0E0710A438260002048
:100B40000FE600200DE600200BE6002009E602205B
:100B50000AE600BF0000045000030450074AD368AF
:100B600023F4E0631B041B0C000200F4E060184354
:100B700040F0BF6040F40030D060704700ED00E00E
:100B800030B4174BDB68C3F30223C3F10704042C12
:100B900028BF04241D1D062D18D9033B4FF0FF3537
:100BA00005FA04F421EA0401994005FA03F322EA64
:100BB0000303194300280BDB0901C9B200F16040AF
:100BC00000F5614080F8001330BC70470023E5E772
:100BD00000F00F000901C9B2024B1954F4E700BF3D
:100BE00000ED00E014ED00E000F01F0240090123D9
:100BF0009340024A42F82030704700BF00E100E015
:100C000000F01F024009012393402030014A42F8BE
:100C10002030704700E100E00138B0F1807F0AD257
:100C2000064B5860064AF02182F823100020986095
:100C300007221A6070470120704700BF10E000E0F3
:100C400000ED00E000F01F02400901239340403016
:100C5000014A42F82030704700E100E000F01F0236
:100C60004009012393406030014A42F82030704728
:100C700000E100E0F0B400233AE0042400E00024A6
:100C8000B4403C430235584E46F82540574CD4F802
:100C90008050D44304EA05064F6817F4803F01D022
:100CA00042EA0506514DC5F88060D5F8845004EA43
:100CB00005064F6817F4003F01D042EA05064B4D88
:100CC000C5F884602D6804EA05064F6817F4801F94
:100CD00001D042EA0506454D2E606D682C404E68F5
:100CE00016F4001F01D042EA0504404A5460013363
:100CF0000A6832FA03F474D001249C402240F6D0F2
:100D00004D68022D01D0122D10D1DE08083650F8A2
:100D100026C003F00705AF000F25BD402CEA050CE7
:100D20000D69BD4045EA0C0540F8265006685F0095
:100D30000325BD40ED4305EA060C4E6806F00306A8
:100D4000BE4046EA0C0606604E6806F1FF3CBCF168
:100D5000010F03D9112E01D0122E10D1866805EA99
:100D6000060CCE68BE4046EA0C068660466826EA57
:100D700004044E68C6F300169E4026434660C468CD
:100D800025408C68BC402C43C4604C6814F0805FE4
:100D9000ADD09D08AE1C144C54F8267003F003042B
:100DA000A6000F24B44027EA0407B0F1904F3FF4A7
:100DB00066AF0F4CA0420ED004F58064A0420CD068
:100DC00004F58064A0420AD004F58064A0423FF498
:100DD00054AF072454E7012452E7022450E70324C8
:100DE0004EE7F0BC704700BF00000140000800580B
:100DF000000400480AB98162704781617047002889
:100E000059D010B5044690F84130002B43D024232C
:100E100084F841302268136823F00103136063688B
:100E2000226823F0706313612268936823F40043FF
:100E30009360E368012B33D0A368226843F4044332
:100E40009360E368022B31D02268536843F000734B
:100E500043F4004353602268D36823F40043D36013
:100E6000236962691343A169226843EA0123D360BD
:100E7000E369216A22680B4313602268136843F018
:100E80000103136000206064202384F84130206354
:100E900084F8420010BD80F8403005F09BFCB6E7B6
:100EA000A368226843F400439360CAE723684FF4C1
:100EB00000625A60C8E70120704790F84130DBB209
:100EC000202B24D190F84030012B22D0012380F830
:100ED0004030242380F841300268136823F0010376
:100EE00013600268136823F4805313600268136868
:100EF000194311600268136843F001031360202353
:100F000080F84130002380F84030184670470220B6
:100F100070470220704790F84130DBB2202B22D17D
:100F200090F84030012B20D0012380F8403024235A
:100F300080F841300268136823F0010313600268EF
:100F4000136823F4706343EA012111600268136897
:100F500043F001031360202380F84130002380F820
:100F6000403018467047022070470220704700004A
:100F7000024A136843F480731360704700040058FA
:100F8000024B186800F4C060704700BF00040058AE
:100F9000F0B58DB006460F462A4C94E80F000CAD14
:100FA00005E90F0005AB04F1100207CA83E807004A
:100FB00001AD1C3494E80F0085E80F00B7F5007F01
:100FC00011D00023022B22D80CAA02EB830252F884
:100FD0001C2CB24215D20133F4E70CAA02EB8303B6
:100FE00053F82C4C14E00023032B08D80CAA02EB76
:100FF000830252F8102CB242EFD20133F4E70024FE
:1010000006E00CAA02EB830353F82C4C00E000240A
:101010000D4A136823F0070323431360FFF778FAA0
:101020000546094B1B6803F00703A34206D0FFF7F0
:101030006FFA401B0228F4D9032000E000200DB015
:10104000F0BD00BFC46F00080040005810B5B028C4
:1010500019D8C0F303100D4B53F820404FF0B043A4
:10106000D3F8083103F00F03094A52F82330B4FBD8
:10107000F3F4FFF785FF074BA3FB04340146A00CF4
:10108000FFF786FF10BD014BDC6AE7E7E070000860
:101090002071000883DE1B43002800F0658338B50B
:1010A0000446036813F0200F58D04FF0B042936805
:1010B000D26802F0030213F00C031ED00C2B1AD0DE
:1010C000E369002B00F0A6804FF0B042136843F0B4
:1010D00001031360FFF71CFA05464FF0B0431B688D
:1010E00013F0020F40F08680FFF712FA401B02282F
:1010F000F3D9032045E3012AE2D14FF0B0431B6846
:1011000013F0020F03D0E369002B00F02F83606A15
:101110004FF0B0431B6803F0F003B02B00D9B023AD
:10112000984252D9FFF792FF002840F02183636A6A
:101130004FF0B042116821F0F0010B431360216AB7
:10114000536823F47F4343EA0123536005F018FDFD
:101150000020FFF795F9002840F00C83236813F076
:10116000010F79D04FF0B042936803F00C03D268BE
:1011700002F00302082B65D00C2B61D06368B3F535
:10118000803F00F09380B3F5A02F00F096804FF0E1
:10119000B0431A6822F480321A601A6822F480225E
:1011A0001A606368002B00F09380FFF7B1F90546E1
:1011B0004FF0B0431B6813F4003F4DD1FFF7A8F97F
:1011C000401B6428F4D90320DBE24FF0B0421368DF
:1011D00023F0F00318431060216A536823F47F431F
:1011E00043EA01235360606AFFF730FF0028ADD067
:1011F0000120C6E2636A4FF0B042116821F0F001AD
:101200000B431360216A536823F47F4343EA0123AD
:101210005360A3E74FF0B042136823F0010313605B
:10122000FFF776F905464FF0B0431B6813F0020F45
:1012300094D0FFF76DF9401B0228F4D90320A0E2F7
:10124000032A9BD14FF0B0431B6813F4003F03D037
:101250006368002B00F09082236813F0020F5CD0CB
:101260004FF0B042936803F00C03D26802F003021F
:10127000042B3FD00C2B3BD0E368002B00F0838085
:101280004FF0B042136843F480731360FFF740F9E6
:1012900005464FF0B0431B6813F4806F69D1FFF728
:1012A00037F9401B0228F4D903206AE24FF0B0421C
:1012B000136843F48033136073E74FF0B0431A6848
:1012C00042F480221A601A6842F480321A6068E799
:1012D000FFF71EF905464FF0B0431B6813F4003FBB
:1012E000BAD0FFF715F9401B6428F4D9032048E26F
:1012F000022AC1D14FF0B0431B6813F4806F03D0B2
:10130000E368002B00F03A8221694FF0B042536845
:1013100023F0FE4343EA01635360236813F0180F80
:1013200000F0E3806269002A00F0AD8013F0100F36
:101330007AD04FF0B043D3F8943013F0020F38D185
:101340004FF0B042D2F8943043F00103C2F8943029
:10135000FFF7DEF805464FF0B043D3F8943013F0B2
:10136000020F26D1FFF7D4F8401B0228F3D903203F
:1013700007E221694FF0B042536823F0FE4343EA8D
:1013800001635360C9E74FF0B042136823F48073E0
:101390001360FFF7BDF805464FF0B0431B6813F428
:1013A000806FBAD0FFF7B4F8401B0228F4D90320AD
:1013B000E7E14FF0B042D2F8943043F00403C2F8B2
:1013C0009430FFF7A5F805464FF0B043D3F89430BA
:1013D00013F0080F06D1FFF79BF8401B0328F3D941
:1013E0000320CEE1A1694FF0B042D2F8943023F44B
:1013F000706343EA0123C2F89430D2F8943023F0AA
:101400000103C2F89430FFF783F805464FF0B0436C
:10141000D3F8943013F0020F67D0FFF779F8401B30
:101420000228F3D90320ACE14FF0B042D2F8943057
:1014300043F00103C2F89430FFF76AF805464FF015
:10144000B043D3F8943013F0020F06D1FFF760F8E1
:10145000401B0228F3D9032093E14FF0B042D2F8A9
:10146000943023F00403C2F894304FF0B043D3F823
:10147000943013F0080F38D0FFF74AF8401B0328C8
:10148000F3D903207DE14FF0B042D2F8943023F03D
:101490000403C2F89430FFF73BF805464FF0B04321
:1014A000D3F8943013F0080F06D0FFF731F8401B43
:1014B0000328F3D9032064E14FF0B042D2F894300E
:1014C00023F00103C2F89430FFF722F805464FF0ED
:1014D000B043D3F8943013F0020F06D0FFF718F89A
:1014E000401B0228F3D903204BE1236813F0040FBB
:1014F00068D0A84B1B6813F4807F27D0A368012B0A
:1015000035D0052B3CD04FF0B043D3F8902022F0DB
:101510000102C3F89020D3F8902022F00402C3F80F
:101520009020A368DBB3FEF7F3FF05464FF0B0430E
:10153000D3F8903013F0020F44D1FEF7E9FF401BBF
:1015400041F288339842F1D903201AE1FFF710FDE8
:10155000FEF7DEFF05468F4B1B6813F4807FCDD16D
:10156000FEF7D6FF401B0228F5D9032009E14FF012
:10157000B042D2F8903043F00103C2F89030D0E787
:101580004FF0B043D3F8902042F00402C3F890200B
:10159000D3F8902042F00102C3F89020C1E7FEF793
:1015A000B7FF05464FF0B043D3F8903013F0020F69
:1015B00008D0FEF7ADFF401B41F288339842F1D9C5
:1015C0000320DEE0236813F0400F33D0A36AC3B1D9
:1015D0004FF0B042D2F8983043F00103C2F898308F
:1015E000FEF796FF05464FF0B043D3F8983013F05E
:1015F000020F1FD1FEF78CFF401B0228F3D90320F6
:10160000BFE04FF0B042D2F8983023F00103C2F8A7
:101610009830FEF77DFF05464FF0B043D3F8983081
:1016200013F0020F06D0FEF773FF401B0228F3D918
:101630000320A6E0E36A002B00F0A2804FF0B04246
:10164000926802F00C020C2A63D0022B20D04FF0DB
:10165000B0431A6822F080721A60DA6822F003023E
:10166000DA60DA6822F0885222F48032DA60FEF71B
:101670004FFF04464FF0B0431B6813F0007F00F0AB
:101680008380FEF745FF001B0228F3D9032078E092
:101690004FF0B042136823F080731360FEF738FFF9
:1016A00005464FF0B0431B6813F0007F06D0FEF7ED
:1016B0002FFF401B0228F4D9032062E04FF0B04214
:1016C000D36835491940236B606B0343A06B43EA31
:1016D0000023E06B0343206C0343606C03430B4324
:1016E000D360136843F080731360D36843F0805372
:1016F000D360FEF70DFF04464FF0B0431B6813F0B4
:10170000007F3FD1FEF704FF001B0228F4D903201D
:1017100037E04FF0B043DB6803F00301226B9142E6
:1017200001D001202DE003F07002616B8A4201D0EC
:10173000012026E0C3F30622A16B8A4201D00120DA
:101740001FE003F47812E16B8A4201D0012018E017
:1017500003F06062216C8A4218D103F06043626C2E
:10176000934215D001200CE001207047012008E0D1
:10177000012006E0012004E0012002E0012000E059
:10178000002038BD0020FCE70020FAE70120F8E740
:101790000020F6E7000400588C80C111002800F0FA
:1017A000278170B504460D46924B1B6803F0070372
:1017B0008B422DD3236813F0020F3FD1236813F01F
:1017C000200F53D1236813F0400F6AD1236813F020
:1017D000040F40F08380236813F0080F40F09780D7
:1017E000236813F0010F00F0E0806368022B00F023
:1017F000A880032B00F0C980002B40F0CE804FF072
:10180000B042126812F0020F40F0A1800120EEE019
:10181000784A136823F007030B431360FEF778FE42
:101820000646744B1B6803F00703AB42C2D0FEF7B9
:101830006FFE801B0228F4D90320D8E0A3684FF084
:10184000B0418A6822F0F00213438B60FEF760FE1D
:1018500006464FF0B0439B6813F4803FAED1FEF7CD
:1018600057FE801B0228F4D90320C0E063694FF0C3
:10187000B041D1F8082122F0F0021343C1F8083139
:10188000FEF746FE06464FF0B043D3F8083113F496
:10189000003F97D1FEF73CFE801B0228F3D90320BE
:1018A000A5E0A1694FF0B042D2F8083123F00F0350
:1018B00043EA1113C2F80831FEF72AFE06464FF03C
:1018C000B043D3F8083113F4803F7FF47FAFFEF7C5
:1018D0001FFE801B0228F2D9032088E0E3684FF046
:1018E000B0418A6822F4E06213438B60FEF710FE79
:1018F00006464FF0B0439B6813F4003F7FF46BAF94
:10190000FEF706FE801B0228F3D903206FE0216951
:101910004FF0B042936823F4605343EAC1039360ED
:10192000FEF7F6FD06464FF0B0439B6813F4802F98
:101930007FF456AFFEF7ECFD801B0228F3D903209D
:1019400055E04FF0B042126812F4003F1BD04FF048
:10195000B0418A6822F0030213438B60FEF7D8FD82
:1019600006464FF0B0439B6803F00C036268B3EB8C
:10197000820F1AD0FEF7CCFD801B41F288339842CB
:10198000EFD9032033E0012031E04FF0B04212687C
:1019900012F0007FDBD1012029E04FF0B042126845
:1019A00012F4806FD3D1012021E0124B1B6803F0A9
:1019B0000703AB4215D90F4A136823F007032B43E3
:1019C0001360FEF7A5FD04460A4B1B6803F00703EE
:1019D000AB4206D0FEF79CFD001B0228F4D9032081
:1019E00005E005F0CDF8FEF799FDFEF749FD70BD65
:1019F00001207047004000584FF0B0439B6813F03F
:101A00000C030CD14FF0B0431B6803F0F003B02B74
:101A100000D9B0231B09244A52F823007047042B35
:101A20003DD0082B10D04FF0B043DB6803F0030328
:101A3000022B30D0032B0FD14FF0B0431B6813F4AF
:101A4000801F2AD1194B13E04FF0B0431B6813F4E9
:101A5000801F26D0164870474FF0B0431B6803F034
:101A6000F003B02B00D9B0231B090F4A52F82330E2
:101A70004FF0B042D068C0F3062000FB03F0D368FB
:101A8000C3F302130133B0FBF3F0D3685B0F0133F0
:101A9000B0FBF3F07047064BEAE7054BE8E7044874
:101AA00070470248704700BFE07000080048E80136
:101AB0000024F40008B5FFF79FFF4FF0B0439B6888
:101AC000C3F30313024A52F82330B0FBF3F008BD0E
:101AD0002071000808B5FFF7EDFF4FF0B0439B6899
:101AE000C3F30223034A52F8233003F01F03D84004
:101AF00008BD00BFC071000808B5FFF7DBFF4FF05D
:101B0000B0439B68C3F3C223034A52F8233003F067
:101B10001F03D84008BD00BFC071000870B505465E
:101B20004FF0B042136823F080631360FEF7F0FCBF
:101B300004464FF0B0431B6813F0006F06D0FEF769
:101B4000E7FC001B0228F4D9032400E000240CB1B8
:101B5000204670BD4FF0B0431A6922F4FE42296856
:101B600042EA01221A611A6922F4781269680A436A
:101B70001A611A6842F080621A60FEF7C9FC0646D4
:101B80004FF0B0431B6813F0006F05D1FEF7C0FCA7
:101B9000801B0228F4D90324002CD9D14FF0B04285
:101BA000136929690B431361D2E770B505464FF0FD
:101BB000B042136823F080631360FEF7A9FC04466B
:101BC0004FF0B0431B6813F0006F06D0FEF7A0FC87
:101BD000001B0228F4D9032400E000240CB12046A5
:101BE00070BD4FF0B0431A6922F4FE42296842EA00
:101BF00001221A611A6922F06062A9680A431A6117
:101C00001A6842F080621A60FEF782FC06464FF0C6
:101C1000B0431B6813F0006F05D1FEF779FC801B01
:101C20000228F4D90324002CD9D14FF0B042136913
:101C300029690B431361D2E770B505464FF0B042F6
:101C4000136823F080631360FEF762FC04464FF0D4
:101C5000B0431B6813F0006F06D0FEF759FC001B61
:101C60000228F4D9032400E000240CB1204670BD02
:101C70004FF0B0431A6922F4FE42296842EA012279
:101C80001A611A6922F06042E9680A431A611A6807
:101C900042F080621A60FEF73BFC06464FF0B0430C
:101CA0001B6813F0006F05D1FEF732FC801B022881
:101CB000F4D90324002CD9D14FF0B042136929691B
:101CC0000B431361D2E770B50446036813F0400F6D
:101CD0002AD0036BB3F5800F11D007D863B9043055
:101CE000FFF71CFF064688B105461FE0B3F5000F5D
:101CF00018D0B3F5400F15D001252E4616E04FF051
:101D0000B042D36843F48033D3600026236B4FF096
:101D1000B041D1F8882022F440021343C1F8883042
:101D2000002503E00026F1E700252E46236813F482
:101D3000006F0AD04FF0B043D3F8905005F44075CF
:101D4000236CAB4240F0C5803546236813F0010F89
:101D500009D0A3694FF0B041D1F8882022F00302E6
:101D60001343C1F88830236813F0020F09D0E369E8
:101D70004FF0B041D1F8882022F440621343C1F8FB
:101D80008830236813F0100F0CD0A06A4FF0B041D8
:101D9000D1F88830020C120423EA020343EA00431C
:101DA000C1F88830236813F0200F0CD0E06A4FF0A0
:101DB000B041D1F88830020C120423EA020343EA4E
:101DC0000043C1F88830236813F0040F0FD0236A52
:101DD0004FF0B040D0F88820190901F47F2122EAA1
:101DE00001021B0103F47F231343C0F888302368EA
:101DF00013F0080F0FD0636A4FF0B040D0F888207E
:101E0000190901F47F2122EA01021B0103F47F2357
:101E10001343C0F88830236813F4807F13D0636BBA
:101E20004FF0B041D1F8882022F040621343C1F84E
:101E30008830636BB3F1006F00F08C80636BB3F19B
:101E4000806F00F08C80236813F4007F09D0A36BAF
:101E50004FF0B041D1F8882022F040421343C1F83E
:101E60008830236813F4806F11D0E36B4FF0B041DA
:101E7000D1F8882022F040521343C1F88830E36B38
:101E8000B3F1005F73D0E36BB3F1805F74D023686C
:101E900013F4805F09D0636C4FF0B041D1F8942007
:101EA00022F440421343C1F89430236813F4005FD6
:101EB0000DD0E26C4FF0B043596A21F030010A4373
:101EC0005A62A26C596A21F003010A435A622846F9
:101ED00070BDFFF74DF85DB9236C4FF0B041D1F8FC
:101EE000902022F440721343C1F8903035462CE71D
:101EF0004FF0B043D3F89020D3F8901041F48031E4
:101F0000C3F89010D3F8901021F48031C3F89010EA
:101F100022F44072216C0A43C3F89020D3F8903029
:101F200013F0010F01D135460FE7FEF7F1FA054630
:101F30004FF0B043D3F8903013F0020F08D1FEF702
:101F4000E7FA401B41F288339842F1D90325FCE6B9
:101F50003546FAE6CB6843F08073CB606EE7201D10
:101F6000FFF723FE00283FF46EAF05466BE7CB6812
:101F700043F48033CB6086E7201DFFF75DFE002829
:101F800085D0054683E738B504460268D36823F058
:101F9000A003D360FEF7BCFA05462368DB6813F0A4
:101FA000200F07D1FEF7B4FA401BB0F57A7FF4D9C1
:101FB000032000E0002038BD38B50368DA6812F06D
:101FC000400F01D0002038BD04464FF0FF32DA60E8
:101FD000FEF79EFA05462368DB6813F0400F07D131
:101FE000FEF796FA401BB0F57A7FF4D90320EAE7B2
:101FF0000020E8E738B5002867D0044690F8213083
:10200000002B44D0022384F821302368CA225A626C
:10201000236853225A622046FFF7CEFF0546002868
:102020003AD12268936823F4E00323F040039360DD
:1020300021688A68636820690343A06903431343E6
:102040008B602368E2681A6122681369A16843EA19
:10205000014313612268D36823F08003D3602268B0
:10206000D36C23F00303D3642168CB6CE26960690D
:1020700002431343CB6423689B6813F0200F14D0F2
:102080002368FF225A62012384F821300BE080F894
:10209000203004F02BFCB5E72368FF225A620423AA
:1020A00084F821300125284638BD2046FFF76BFF14
:1020B0000028E5D02368FF225A62042384F82130E7
:1020C000002384F820300125EDE70125EBE7F8B582
:1020D00005460F4616461C462B689B6837EA0303E5
:1020E0000CBF01230023B34237D0B4F1FF3FF3D03C
:1020F000FEF70EFA069BC01AA04201D2002CEBD1CB
:102100002A68536823F0E00353606B68B3F5827F5D
:102110000BD0AB6AB3F5005F14D0012385F85D30B6
:10212000002385F85C30032018E0AB68B3F5004F5E
:1021300002D0B3F5806FECD12A68136823F0400316
:102140001360E6E72A68136823F4005313602A68D3
:10215000136843F400531360DFE70020F8BDF8B5BF
:1021600007460C4615461E4602E0B6F1FF3F0BD16E
:102170003A6893682340AB423BD0B4F5C06FF4D1CA
:10218000002DF2D1137BF0E7FEF7C2F9069BC01ACF
:10219000B04201D2002EEBD13A68536823F0E0033D
:1021A00053607B68B3F5827F0BD0BB6AB3F5005FE9
:1021B00014D0012387F85D30002387F85C300320BA
:1021C00018E0BB68B3F5004F02D0B3F5806FECD1D7
:1021D0003A68136823F040031360E6E73A6813682F
:1021E00023F4005313603A68136843F400531360F8
:1021F000DFE70020F8BD70B582B004460D461646F4
:1022000000920B4600224FF4C051FFF7A8FFB8B967
:1022100000962B46002280212046FFF758FFB8B9D0
:1022200000962B4600224FF4C0612046FFF797FF2F
:10223000034650B1236E43F020032366032304E0DA
:10224000236E43F0200323660323184602B070BDBB
:10225000236E43F0200323660323F6E7002853D0C0
:1022600010B504460023836290F85D30002B40D007
:10227000022384F85D302268136823F04003136062
:10228000E368B3F5E06F39D90022B3F5706F04D07D
:10229000B3F5E06F01D00021A162216B21B9B3F544
:1022A000E06F2ED9022323636368A1680B43216981
:1022B0000B4361690B43A16901F400710B43E169B0
:1022C0000B43216A0B43A06A216803430B60638BB5
:1022D00003F00403616A0B43616B0B43E1680B433A
:1022E000216813434B6000202066012384F85D3091
:1022F00010BD80F85C3004F009FBB9E74FF4805260
:10230000C3E701232363CFE7012070472DE9F041A4
:1023100082B090F85C40012C00F0E4801E46154627
:1023200088460446012380F85C30FEF7F1F8074642
:1023300094F85D20D2B2012A09D00220012384F84A
:102340005D30002384F85C3002B0BDE8F081B8F164
:10235000000F00F0B980002D00F0B880032384F84E
:102360005D3000232366C4F83880A587E5872364A1
:10237000A4F84430A4F846302365E364A368B3F5B9
:10238000004F1CD023681A6812F0400F03D11A685E
:1023900042F040021A60E368B3F5E06F33D9636836
:1023A0000BB1012D1BD1A26B23681288DA60A36BDD
:1023B0000233A363E38F013B9BB2E3870FE0226804
:1023C000136843F480431360DCE7FEF7A1F8C01BF9
:1023D000B04202D3B6F1FF3F7AD1002E7AD0E38F1C
:1023E0009BB2002B5BD023689A6812F0020FECD0EE
:1023F000A26B1288DA60A36B0233A363E38F013B05
:102400009BB2E387EBE763680BB1012D30D1E38F1B
:102410009BB2012B0BD9A26B23681288DA60A36BE5
:102420000233A363E38F023B9BB2E38720E0A26BFE
:10243000236812781A73A36B0133A363E38F013B04
:102440009BB2E38714E0A36B1B781373A36B013378
:10245000A363E38F013B9BB2E38709E0FEF758F8E3
:10246000C01BB04202D3B6F1FF3F35D1002E35D0AC
:10247000E38F9BB29BB12268936813F0020FEDD0FB
:10248000E38F9BB2012BDED9A36B1B88D360A36BB8
:102490000233A363E38F023B9BB2E387E8E73A464C
:1024A00031462046FFF7A7FE08B120232366A36824
:1024B00033B901932368DA6801929B680193019B09
:1024C000236E6BB9002039E7012037E7012035E79B
:1024D000032033E7032031E703202FE703202DE714
:1024E00001202BE702202FE730B4036A23F0010319
:1024F0000362036A4468826922F4803222F0730224
:102500000D682A4323F002038D682B43144DA84223
:1025100007D005F5E055A84203D0A5F58065A8428F
:1025200005D123F00803CD682B4323F004030C4DA1
:10253000A84207D005F5C055A84203D005F580652F
:10254000A84205D124F440754C692C438D692C4375
:10255000446082614A684263036230BC704700BFD6
:10256000002C014030B4036A23F480730362036AD1
:102570004268C46924F4803424F073040D682C4349
:1025800023F400738D6843EA0523124DA84219D045
:10259000104DA84207D005F5C055A84203D005F557
:1025A0008065A84207D122F440524D6942EA0512E3
:1025B0008D6942EA05124260C4614A68C2630362DF
:1025C00030BC704723F40063CD6843EA052323F44D
:1025D0008063DDE7002C014030B4036A23F48053AC
:1025E0000362026A4468C36923F0807323F4E643FC
:1025F0000D6843EA052322F400528D6842EA053251
:102600000B4DA84207D005F5C055A84203D005F5EB
:102610008065A84204D124F480444D6944EA8514BD
:102620004460C3614B680364026230BC704700BF02
:10263000002C014030B4036A23F480330362036A40
:102640004468426D22F4803222F070020D682A4301
:1026500023F400338D6843EA05430B4DA84207D0AD
:1026600005F5C055A84203D005F58065A84204D100
:1026700024F480344D6944EA0524446042654A6884
:102680008265036230BC7047002C014030B4036A9D
:1026900023F480130362026A4468436D23F080735D
:1026A00023F4E0430D6843EA052322F400128D6809
:1026B00042EA05520B4DA84207D005F5C055A84285
:1026C00003D005F58065A84204D124F480244D6927
:1026D00044EA8524446043654B68C365026230BCAC
:1026E000704700BF002C01407047000003681A4A81
:1026F000904202D0B0F1804F03D123F070034A68BA
:102700001343154A90420AD0B0F1804F07D002F52A
:10271000C052904203D002F58062904203D123F46C
:102720004073CA68134323F080034A69134303606C
:102730008B68C3620B688362074B984207D003F52E
:10274000C053984203D003F58063984201D10B69CE
:102750000363012343617047002C0140A8B110B509
:10276000044690F83D305BB1022384F83D30211DD2
:102770002068FFF7BBFF012384F83D30002010BD27
:1027800080F83C3004F01AF9EEE701207047A8B158
:1027900010B5044690F83D305BB1022384F83D301B
:1027A000211D2068FFF7A2FF012384F83D3000209F
:1027B00010BD80F83C30FFF797FFEEE7012070472F
:1027C000A8B110B5044690F83D305BB1022384F8FF
:1027D0003D30211D2068FFF789FF012384F83D303B
:1027E000002010BD80F83C3004F0C4F8EEE7012072
:1027F0007047000030B4036A23F010030362036AD9
:102800004468826922F0807222F4E6420D6842EA4E
:10281000052223F020038D6843EA0513124DA842D8
:1028200019D0114DA84207D005F5C055A84203D0D4
:1028300005F58065A84207D124F440644D6944EA57
:1028400085048D6944EA8504446082614A68826334
:10285000036230BC704723F08003CD6843EA051360
:1028600023F04003DDE700BF002C014090F83C302E
:10287000012B34D010B50446012380F83C300223EC
:1028800080F83D30142A0FD8DFE802F00B0E0E0E50
:10289000150E0E0E190E0E0E1D0E0E0E210E0E0E24
:1028A00025000068FFF720FE012384F83D3000205A
:1028B00084F83C0010BD0068FFF79CFFF4E7006857
:1028C000FFF750FEF0E70068FFF786FEECE70068D0
:1028D000FFF7B0FEE8E70068FFF7D8FEE4E7022064
:1028E000704738B590F83C30012B00F092800D46CF
:1028F0000446012380F83C30022380F83D30142A3E
:102900001ED8DFE802F00B1D1D1D241D1D1D381DE6
:102910001D1D4B1D1D1D5F1D1D1D72000068FFF755
:10292000E3FD2268936943F0080393612268936989
:1029300023F0040393612268936929690B4393612F
:10294000012384F83D30002084F83C0038BD006845
:10295000FFF750FF2268936943F400639361226894
:10296000936923F48063936122689369296943EA38
:1029700001239361E4E70068FFF7F4FD2268D3695F
:1029800043F00803D3612268D36923F00403D361C1
:102990002268D36929690B43D361D1E70068FFF747
:1029A0001BFE2268D36943F40063D3612268D369B4
:1029B00023F48063D3612268D369296943EA012340
:1029C000D361BDE70068FFF735FE2268536D43F021
:1029D000080353652268536D23F00403536522688E
:1029E000536D29690B435365AAE70068FFF74EFE54
:1029F0002268536D43F4006353652268536D23F4DA
:102A0000806353652268536D296943EA0123536546
:102A100096E702209AE710B401F01F01012303FAA0
:102A200001F4036A23EA04030362036A8A4013433E
:102A300003625DF8044B704710B50446012200683C
:102A4000FFF7E9FF23680F4A934207D002F5C0520F
:102A5000934203D002F58062934203D15A6C42F450
:102A600000425A6422689168074B0B40062B06D03F
:102A7000B3F5803F03D0136843F0010313600020D7
:102A800010BD00BF002C01400700010090F83C3051
:102A9000012B25D030B4012380F83C30022380F88C
:102AA0003D300268536895680E4CA24213D023F063
:102AB00070030C68234325F0800489682143536028
:102AC00003689960012380F83D30002380F83C3092
:102AD000184630BC704723F470034C682343E6E784
:102AE00002207047002C014090F83C30012B3BD075
:102AF00010B4012380F83C30CB6823F440738A681B
:102B0000134323F480634A68134323F400630A6881
:102B1000134323F480530A69134323F400534A698F
:102B2000134323F480438A6A134323F470238A698E
:102B300043EA024302680D4CA24207D053640023CB
:102B400080F83C3018465DF8044B704723F470035E
:102B50004C6A43EA045323F08073CC69234323F087
:102B60000073096A0B43E9E702207047002C01401B
:102B70002DE9F048044601688368026913434269FD
:102B80001343C2691343426E13430868A14A0240CB
:102B90001A430A602268536823F44053E1680B43E8
:102BA0005360A16922689C4B9A4201D0236A194361
:102BB000936823F06E4323F430630B4393602268E1
:102BC000D36A23F00F03616A0B43D3622368934AED
:102BD000934219D0904A93422AD010258E4A9342AC
:102BE00043D0E369B3F5004F00F00783013D072DA3
:102BF00000F24F85DFE815F01E046E044D05CA048F
:102C00004D054D054D0508054FF0B042D2F888201E
:102C100002F00302032A09D8DFE802F002042306C7
:102C20000125DBE70425D9E70825D7E71025D5E7F7
:102C30004FF0B042D2F8882002F44062B2F5806FC3
:102C40000BD007D9B2F5006F0DD0B2F5406F06D1A9
:102C50000825C3E71AB90025C0E70425BEE71025FB
:102C6000BCE70225BAE70225B8E7082D00F2148573
:102C7000DFE815F0090012055A0012057800120568
:102C800012051205AF00FEF725FF636AD3B1012BD1
:102C900036D0022B36D0032B36D0042B36D0052B62
:102CA00036D0062B36D0072B36D0082B36D0092B42
:102CB00036D00A2B36D00B2B01D0012303E04FF482
:102CC000807300E00123B0FBF3F0002800F0E684FD
:102CD000626802EB4203834200F2E284B0EB023FFF
:102CE00000F2E084082D00F28582DFE815F0D000C4
:102CF00083022F01830293018302830283021F0256
:102D00000223E0E70423DEE70623DCE70823DAE713
:102D10000A23D8E70C23D6E71023D4E72023D2E7F1
:102D20004023D0E78023CEE7636A002B6FD0012BCE
:102D300078D0022B78D0032B78D0042B78D0052BB9
:102D400078D0062B78D0072B78D0082B78D0092B99
:102D500078D00A2B78D00B2B01D03148B5E74FF251
:102D60002440B2E7FEF748FE636AD3B1012B1CD0C2
:102D7000022B1CD0032B1CD0042B1CD0052B1CD0E9
:102D8000062B1CD0072B1CD0082B1CD0092B1CD0C9
:102D90000A2B1CD00B2B01D0012303E04FF48073CE
:102DA00000E00123B0FBF3F08FE70223FAE70423EE
:102DB000F8E70623F6E70823F4E70A23F2E70C23F3
:102DC000F0E71023EEE72023ECE74023EAE7802337
:102DD000E8E7636A002B39D0012B3AD0022B3BD0B5
:102DE000032B3CD0042B3DD0052B3ED0062B3FD0EF
:102DF000072B40D0082B41D0092B42D00A2B43D0BF
:102E00000B2B02D04FF400405FE780205DE70448C1
:102E10005BE700BFF369FFCF00800040003801404E
:102E20000024F400AC4850E7AC484EE7AC484CE70F
:102E3000AC484AE7AC4848E7AC4846E7AC4844E70A
:102E4000AC4842E7AC4840E7AC483EE74FF40040AE
:102E50003BE74FF4804038E74FF4005035E741F24C
:102E6000555032E74FF480502FE740F6CC402CE726
:102E700040F6AA2029E74FF4006026E74FF480606F
:102E800023E74FF4007020E74FF480701DE7FEF752
:102E900021FE636AE3B1012B3AD0022B3BD0032B16
:102EA0003CD0042B3DD0052B3ED0062B3FD0072B2A
:102EB00040D0082B41D0092B42D00A2B43D00B2BFA
:102EC00002D00122002305E04FF48072002301E0CC
:102ED000012200230021FDF753F90F0247EA106792
:102EE00006026268500800252B4616EB000B47F1DE
:102EF000000C58466146FDF743F903462846A3F502
:102F000040717F4A914200F2CF832268D360C3E2CE
:102F100002220023DEE704220023DBE7062200234F
:102F2000D8E708220023D5E70A220023D2E70C22A3
:102F30000023CFE710220023CCE720220023C9E79B
:102F400040220023C6E780220023C3E7636AFBB167
:102F5000012B2DD0022B30D0032B33D0042B36D0B5
:102F6000052B39D0062B3CD0072B3FD0082B42D065
:102F7000092B45D00A2B48D00B2B04D0DFF884B1A5
:102F80004FF0000C08E0DFF880B14FF0000C03E0D8
:102F9000DFF870B14FF0000C560800252B461BEBF4
:102FA00006004CF10001FDF7EBF803462846A6E7C2
:102FB000DFF858B14FF0000CEEE7DFF854B14FF0F6
:102FC000000CE9E70FF2001CDCE900BCE4E7DFF8E5
:102FD00044B14FF0000CDFE7DFF83CB14FF0000CDC
:102FE000DAE70FF2EC0CDCE900BCD5E7DFF82CB136
:102FF0004FF0000CD0E7DFF828B14FF0000CCBE722
:10300000DFF820B14FF0000CC6E7DFF81CB14FF03D
:10301000000CC1E7FEF7F0FC636AE3B1012B32D08C
:10302000022B33D0032B34D0042B35D0052B36D0D4
:10303000062B37D0072B38D0082B39D0092B3AD0A4
:103040000A2B3BD00B2B02D00122002305E04FF4CA
:103050008072002301E0012200230021FDF790F897
:103060000F0247EA106706026268500800252B46E7
:1030700016EB000B47F1000C58466146FDF780F84F
:10308000034628463BE702220023E6E7042200230A
:10309000E3E706220023E0E708220023DDE70A2217
:1030A0000023DAE70C220023D7E710220023D4E71D
:1030B00020220023D1E740220023CEE780220023F4
:1030C000CBE700BFAFF3008000AAB02800000000EB
:1030D000005558140000000000127A0000093D005D
:1030E000AAB0280080841E00006A180055581400F9
:1030F00040420F0020A1070090D0030048E80100E3
:10310000FFFC0F00000024F40024F4000000127AF9
:103110000000093D0080841E00006A180040420F34
:103120000020A1070090D0030048E801636AFBB1CA
:10313000012B2DD0022B30D0032B33D0042B36D0D3
:10314000052B39D0062B3CD0072B3FD0082B42D083
:10315000092B45D00A2B48D00B2B04D04FF4000B81
:103160004FF0000C08E04FF4004B4FF0000C03E070
:103170004FF4000B4FF0000C560800252B461BEBBC
:1031800006004CF10001FCF7FBFF03462846B6E6BB
:103190004FF4800B4FF0000CEEE74FF4001B4FF0A4
:1031A000000CE9E7DFF8D8B34FF0000CE4E74FF488
:1031B000801B4FF0000CDFE7DFF8C8B34FF0000CC6
:1031C000DAE7DFF8C4B34FF0000CD5E74FF4002B7B
:1031D0004FF0000CD0E74FF4802B4FF0000CCBE702
:1031E0004FF4003B4FF0000CC6E74FF4803B4FF02C
:1031F000000CC1E70120002381E6013D072D00F20C
:103200001681DFE815F00800560014018F00140144
:1032100014011401CE00FEF76FFC636AD3B1012BD9
:1032200033D0022B33D0032B33D0042B33D0052BD8
:1032300033D0062B33D0072B33D0082B33D0092BB8
:1032400033D00A2B33D00B2B01D0012303E04FF4F2
:10325000807300E00123B0FBF3F06268530803EBD6
:103260004003B3FBF2F39BB20020A3F110014FF631
:10327000EF72914200F21A829AB222F00F02C3F367
:10328000420313432268D36006E10223E3E70423E9
:10329000E1E70623DFE70823DDE70A23DBE70C236A
:1032A000D9E71023D7E72023D5E74023D3E78023AE
:1032B000D1E7636ACBB1012B20D0022B20D0032BA6
:1032C00020D0042B20D0052B20D0062B20D0072B7C
:1032D00020D0082B20D0092B20D00A2B20D00B2B5C
:1032E00001D0994B02E0994B00E0974B626803EBE9
:1032F0005203B3FBF2F39BB20020B6E7944BF5E721
:10330000944BF3E7944BF1E7944BEFE7944BEDE7E5
:10331000944BEBE7944BE9E7944BE7E7944BE5E7F5
:10332000944BE3E7FEF768FB636AD3B1012B24D02B
:10333000022B24D0032B24D0042B24D0052B24D003
:10334000062B24D0072B24D0082B24D0092B24D0E3
:103350000A2B24D00B2B01D0012303E04FF4807300
:1033600000E00123B0FBF3F06268530803EB400375
:10337000B3FBF2F39BB2002077E70223F2E70423CA
:10338000F0E70623EEE70823ECE70A23EAE70C233D
:10339000E8E71023E6E72023E4E74023E2E7802381
:1033A000E0E7636ADBB1012B23D0022B24D0032B8F
:1033B00025D0042B26D0052B27D0062B28D0072B71
:1033C00029D0082B2AD0092B2BD00A2B2CD00B2B41
:1033D00002D04FF4803304E04FF4807301E04FF4E7
:1033E0008033626803EB5203B3FBF2F39BB200201D
:1033F0003BE74FF40043F4E74FF48043F1E742F634
:10340000AA23EEE74FF40053EBE741F69813E8E701
:1034100041F25453E5E74FF48053E2E74FF4006381
:10342000DFE74FF48063DCE74FF40073D9E7012056
:1034300000231AE7FEF760FB636AD3B1012B35D096
:10344000022B35D0032B35D0042B35D0052B35D0AE
:10345000062B35D0072B35D0082B35D0092B35D08E
:103460000A2B35D00B2B01D0012203E04FF48072E0
:1034700000E00122B0FBF2F2636802EB5302B2FB00
:10348000F3F292B20020A2F110014FF6EF739942CD
:1034900000F20E812368DA600122A4F86A20A4F801
:1034A00068200022E2662267BDE8F0880222E1E798
:1034B0000422DFE70622DDE70822DBE70A22D9E75C
:1034C0000C22D7E71022D5E72022D3E74022D1E70C
:1034D0008022CFE7636AD3B1012B21D0022B21D008
:1034E000032B21D0042B21D0052B21D0062B21D05A
:1034F000072B21D0082B21D0092B21D00A2B21D03A
:103500000B2B01D0124A03E04FF2244200E0104A94
:10351000636802EB5302B2FBF3F292B20020B2E70F
:103520000C4AF5E70D4AF3E70E4AF1E70E4AEFE7DA
:10353000114AEDE7114AEBE70C4AE9E70C4AE7E7E5
:103540000C4AE5E7014AE3E70048E80148E80100E2
:103550000024F40000127A005461510000093D007B
:1035600000D43000AAB0280080841E0040420F0022
:1035700020A1070090D00300006A180055581400DD
:103580000055150000CC0C0000AA0A00FEF734FA22
:10359000636AD3B1012B23D0022B23D0032B23D07A
:1035A000042B23D0052B23D0062B23D0072B23D08D
:1035B000082B23D0092B23D00A2B23D00B2B01D08F
:1035C000012203E04FF4807200E00122B0FBF2F22E
:1035D000636802EB5302B2FBF3F292B2002052E7AF
:1035E0000222F3E70422F1E70622EFE70822EDE7E3
:1035F0000A22EBE70C22E9E71022E7E72022E5E7C1
:103600004022E3E78022E1E7636AD3B1012B22D0B5
:10361000022B23D0032B24D0042B25D0052B26D01E
:10362000062B27D0072B28D0082B29D0092B2AD0EE
:103630000A2B2BD00B2B02D04FF4004203E0802248
:1036400001E04FF40042636802EB5302B2FBF3F275
:1036500092B2002017E74FF48042F4E74FF4005293
:10366000F1E741F25552EEE74FF48052EBE740F6B6
:10367000CC42E8E740F6AA22E5E74FF40062E2E731
:103680004FF48062DFE74FF40072DCE74FF48072A2
:10369000D9E701200022F6E60120FDE60020FBE646
:1036A0000120F9E60120F7E60120F5E60120F3E626
:1036B0000120F1E6836A13F0010F06D00268536817
:1036C00023F40033C16A0B435360836A13F0020F83
:1036D00006D00268536823F48033016B0B435360B8
:1036E000836A13F0040F06D00268536823F4802322
:1036F000416B0B435360836A13F0080F06D00268D6
:10370000536823F40043816B0B435360836A13F0C7
:10371000100F06D00268936823F48053C16B0B43EB
:103720009360836A13F0200F06D00268936823F435
:103730000053016C0B439360836A13F0400F0AD06F
:103740000268536823F48013416C0B435360436C4D
:10375000B3F5801F0BD0836A13F0800F06D0026888
:10376000536823F40023C16C0B4353607047026815
:10377000536823F4C003816C0B435360EBE72DE9DE
:10378000F04105460F4616469846069C2B68DB69B5
:1037900037EA03030CBF01230023B3421ED1B4F167
:1037A000FF3FF3D0FCF7B4FEA0EB0800A04201D825
:1037B000002CEBD12A68136823F4D07313602A68B5
:1037C000936823F0010393602023C5F88030C5F887
:1037D0008430002385F87C30032000E00020BDE821
:1037E000F08130B583B004460023C0F88830FCF780
:1037F0008FFE054623681B6813F0080F0ED123685F
:103800001B6813F0040F17D12023C4F88030C4F8CC
:103810008430002084F87C0003B030BD6FF07E431C
:103820000093034600224FF400112046FFF7A7FF44
:103830000028E4D00320EFE76FF07E4300932B468F
:1038400000224FF480012046FFF799FF0028DBD0CB
:103850000320E1E778B310B50446D0F880300BB30D
:103860002423C4F880302268136823F00103136016
:103870002046FFF77DF9012813D0A36ABBB922685F
:10388000536823F4904353602268936823F02A031B
:1038900093602268136843F0010313602046FFF72A
:1038A000A0FF10BD80F87C3002F0C8FFD8E72046AA
:1038B000FFF700FFE3E701207047000010B485B078
:1038C00002461A4B93E8030004AC04E903006C467B
:1038D000083393E8030084E80300536EFBB11168DA
:1038E0008B68C3F34263886804A901EB507010F839
:1038F000081CC90010F8100C91FBF0F1A2F86A1036
:1039000004A90B4413F8081CC90013F8103C91FBE0
:10391000F3F3A2F8683005B05DF8044B704701235B
:10392000A2F86A30A2F86830F5E700BFF06F00082F
:1039300090F87C30012B18D0012380F87C302423B0
:10394000C0F8803003681A68196821F00101196015
:1039500022F000520023436601680A602022C0F86A
:10396000802080F87C30184670470220704738B5B8
:1039700090F87C30012B1DD00446012380F87C3068
:103980002423C0F8803003681D681A6822F0010201
:103990001A600268936823F0604319439160FFF74F
:1039A0008DFF23681D602023C4F88030002084F838
:1039B0007C0038BD0220FCE738B590F87C30012B44
:1039C0001DD00446012380F87C302423C0F88030C9
:1039D00003681D681A6822F001021A600268936881
:1039E00023F0606319439160FFF768FF23681D604F
:1039F0002023C4F88030002084F87C0038BD0220E9
:103A0000FCE700004378FF2B38D1B0F8032040F6E4
:103A100001439A4234D110B584B0B0F80720194B55
:103A20009B8802339A4207D0164B5B8801339A4237
:103A300016D0002004B010BD437B13F0010F07D057
:103A400004A8002300F8103D02F05AFE0120F1E71F
:103A5000012404A800F8104D02F052FE2046E9E7C8
:103A600003238DF80030B0F80B308DF808300D309E
:103A70000190684602F044FE0020DBE7002070471A
:103A8000002070478C0000202DE9F04F8BB0624879
:103A900000F0FAF88F238DF81830E5238DF81930EF
:103AA000B3238DF81A30D5238DF81B302E238DF8D3
:103AB0001C307F238DF81D304A238DF81E3098234B
:103AC0008DF81F302A238DF8203048238DF82130BF
:103AD0007A238DF82230CC238DF8233040238DF8C3
:103AE0002430FE278DF8257000248DF826408DF8AF
:103AF00027404A4B00930823012206A9022000F028
:103B000085FA4FF0190B8DF818B0ED268DF8196075
:103B10004FF0820A8DF81AA06FF051038DF81B3018
:103B20008DF81C604FF021028DF81D204FF04C01E4
:103B30008DF81E106FF062008DF81F004FF04108E5
:103B40008DF820804FF045058DF821504FF0220C64
:103B50008DF822C04FF08E098DF823908DF82480C7
:103B60008DF825708DF826408DF827402B4B33F8C3
:103B7000020B0593012504954FF00A0ECDF80CE0D9
:103B8000029501940623009302230DF1180E72464C
:103B9000194600F08CFA8DF818B08DF819608DF880
:103BA0001AA06FF051038DF81B308DF81C604FF098
:103BB00021028DF81D204FF04C018DF81E106FF082
:103BC00062008DF81F008DF820804FF045038DF8BE
:103BD00021304FF0220C8DF822C08DF82390422323
:103BE0008DF824308DF825708DF826408DF827400B
:103BF0000A4B33F8040B059304950A2303930295AB
:103C0000019410230093022306AA194600F04FFAEC
:103C10000BB0BDE8F08F00BF053A00088C00002013
:103C200070477047704770477047704770477047DC
:103C300070477047704770477047000008B5114BD8
:103C400000221A7783F82020FFF7EAFFFFF7E9FF49
:103C5000FFF7E8FFFFF7E7FFFFF7E6FFFFF7E5FFF6
:103C6000FFF7E4FFFFF7E3FFFFF7E2FFFFF7E1FFF6
:103C7000FFF70AFFFFF7DEFFFFF7DEFFFFF7DBFFCF
:103C800008BD00BF94000020034A137F42F82300C0
:103C900001331377704700BF9400002038B5054604
:103CA0004378FF2B1BD1B0F8033003F47F43B3F507
:103CB000406F14D1002422460C4B1B7FA34209D92C
:103CC0000A4B53F8243028469847024610B901346D
:103CD000E4B2F1E71AB1022A05D0012002E0284639
:103CE00001F0FEFB38BD0020FCE700BF940000207F
:103CF00010B588B000248DF807401822214602A88C
:103D000000F03AFB3F23ADF808308123ADF80A30CC
:103D10000DF10703069301230793214602A800F043
:103D2000E3FBA04203DB9DF8070008B010BDFF20B5
:103D3000FBE72DE9F04FC9B09DF84C619DF8545157
:103D400006F1080A02AC04EB0A0B7719093704EBF9
:103D500007080DF107094FF0000C8DF807C08DF82A
:103D60000800ADF80910ADF80B208DF80D309DF866
:103D700048318DF80E308DF80F603246549904A802
:103D800000F0F6FA04F80A5009362A4656990BF163
:103D9000010000F0EDFA3544BDF85C31E353BDF8A5
:103DA0006031A8F8023004351822002142A800F042
:103DB000E3FA3F23ADF808318323ADF80A31449488
:103DC0004595CDF8189101234793002142A800F0B2
:103DD0008BFB002804DB9DF8070049B0BDE8F08F9D
:103DE000FF20FAE770B5C8B00DF1070500248DF883
:103DF000074002AE8DF808001822214642A800F0C4
:103E0000BBFA3F23ADF808318523ADF80A3144965B
:103E10000123459346954793214642A800F064FB51
:103E2000A04203DB9DF8070048B070BDFF20FBE710
:103E300070B5C8B00DF1070600258DF8075002AC2B
:103E40008DF808008DF809108DF80A208DF80B30D8
:103E50009DF830318DF80C309DF834318DF80D30EF
:103E60009DF838318DF80E304F9BCDF80F309DF80E
:103E700040318DF813301822294642A800F07CFA10
:103E80003F23ADF808318623ADF80A3144940C2362
:103E90004593469601234793294642A800F024FB08
:103EA000A84203DB9DF8070048B070BDFF20FBE788
:103EB0002DE9F041C8B080460F4615461E46072240
:103EC0000021684600F058FA02AC8DF808808DF8A1
:103ED00009708DF80A501822002142A800F04CFA0F
:103EE0003F23ADF808318A23ADF80A314494032307
:103EF0004593CDF818D107234793002142A800F03D
:103F0000F3FA002810DB9DF8000050B9BDF801302D
:103F10003380BDF803204E9B1A80BDF805204F9BCF
:103F20001A8048B0BDE8F081FF20FAE7F0B5C9B0CB
:103F300004460DF1070600258DF8075002AF8DF8F5
:103F4000080002460DF1090000F012FA01341822AF
:103F5000294642A800F010FA3F23ADF808318E231D
:103F6000ADF80A3144974594469601234793294674
:103F700042A800F0B9FAA84203DB9DF8070049B057
:103F8000F0BDFF20FBE710B588B000248DF8074096
:103F90001822214602A800F0EFF93F23ADF80830BF
:103FA0009223ADF80A300DF107030693012307931E
:103FB000214602A800F098FAA04203DB9DF8070012
:103FC00008B010BDFF20FBE710B588B000248DF8C5
:103FD00007401822214602A800F0CEF93F23ADF891
:103FE000083040F20113ADF80A300DF107030693D3
:103FF00001230793214602A800F076FAA04203DBD2
:104000009DF8070008B010BDFF20FBE72DE9F04147
:10401000C8B00446884617461E46012815D0022817
:1040200011D0012502AB1D440322002101A800F09C
:10403000A3F98DF80840012C09D0022C33D0472079
:1040400048B0BDE8F0811125ECE70325EAE702243A
:10405000224641460DF1090000F08AF92F706E707A
:1040600003341822002142A800F086F93F23ADF85E
:1040700008314FF48173ADF80A3102AB4493459493
:1040800001AB469303234793002142A800F02CFA8A
:1040900000280ADB9DF804000028D1D1BDF80520D6
:1040A0004E9B1A80CCE71024D2E7FF20C8E72DE909
:1040B000F041C8B006460D4690461F46012917D06C
:1040C000022913D0032402AB1C440322002101A8BF
:1040D00000F052F9ADF808608DF80A50012D09D0B2
:1040E000022D41D0472048B0BDE8F0811324EAE713
:1040F0000524E8E702252A4641460DF10B0000F0B1
:1041000037F927809DF83831A3709DF83C31E37072
:104110009DF8403123719DF8443163719DF8483119
:10412000A3710A351822002142A800F025F93F2387
:10413000ADF808314FF48273ADF80A3102AB449305
:10414000459501AB469303234793002142A800F015
:10415000CBF900280ADB9DF804000028C3D1BDF884
:104160000520539B1A80BEE71025C4E7FF20BAE75D
:10417000F0B5C9B01C460DF1070700268DF80760A1
:1041800002ADADF80800ADF80A108DF80C208DF8DE
:104190000D301A464E990DF10E0000F0E9F8063484
:1041A0001822314642A800F0E7F83F23ADF8083165
:1041B0004FF48373ADF80A31449545944697012333
:1041C0004793314642A800F08FF9B04203DB9DF8D7
:1041D000070049B0F0BDFF20FBE7F0B5C9B00C46C1
:1041E00011460DF1070700258DF8075002AE8DF836
:1041F00008008DF8094022460DF10A0000F0B8F8D9
:1042000002341822294642A800F0B6F83F23ADF840
:1042100008310C23ADF80A314496459446970123A2
:104220004793294642A800F05FF9A84203DB9DF8B6
:10423000070049B0F0BDFF20FBE770B5C8B00DF135
:10424000070600248DF8074002AD8DF808008DF8B0
:1042500009101822214642A800F08EF83F23ADF83D
:1042600008310F23ADF80A31449502234593469651
:1042700001234793214642A800F036F9A04203DB10
:104280009DF8070048B070BDFF20FBE770B5C8B0CF
:104290000DF1070500248DF8074002AEADF80800C7
:1042A0001822214642A800F067F83F23ADF80831F4
:1042B0001823ADF80A31449602234593469501230D
:1042C0004793214642A800F00FF9A04203DB9DF876
:1042D000070048B070BDFF20FBE710B588B0002490
:1042E0008DF807401822214602A800F045F8032364
:1042F000ADF80830ADF80A300DF10703069301233D
:104300000793214602A800F0EFF8A04203DB9DF8D6
:10431000070008B010BDFF20FBE770B5C8B00DF175
:10432000070600258DF8075002AC8DF808008DF8BF
:1043300009108DF80A201822294642A800F01CF81E
:104340000823ADF808313123ADF80A314494032332
:104350004593469601234793294642A800F0C4F8A6
:10436000A84203DB9DF8070048B070BDFF20FBE7C3
:1043700008B502F0F1FC08BD08B502F011FD08BD5A
:1043800000B585B06B4600F10C0221214FF6664066
:1043900000F088F99DF80E0005B05DF804FB000000
:1043A00008B520B9054B1B6833B1984704E0034BAF
:1043B0001B680BB10120984708BD00BF2C020020EC
:1043C00070B584B006460B4C201D00F0C5FB0A4DAD
:1043D000284640F8046B00F0BFFB01232B73E36811
:1043E0002BB1029604A8054A40F8102D984704B056
:1043F00070BD00BF2C020020B8000020014400085E
:1044000010B5437A0E3BDBB2012B08D9084C0146AC
:10441000204600F0BCFB204601F0A6F810BD014686
:10442000044800F0B4FB002001F0A4F8F6E700BF58
:10443000BC0000203002002010B51446084B1B6859
:10444000A3F80900D9720A46214603F10C0002F0D4
:1044500083FC044BDB6900210846984710BD00BF70
:10446000B80000202C02002010B50C464A68054B0D
:104470001A60986203F10C0000F040F92068FFF721
:104480009FFF10BD2C02002010B584B003E00399FB
:10449000124800F070FB114800F061FBD8B9104BD6
:1044A0001B7BC3B10E4C03A9201D00F088FB012328
:1044B00023730C4B9B6A33B1039A029201A898476D
:1044C0009DF804202273064B1B7B002BDFD0039842
:1044D00000F01CFADFE704B010BD00BFBC000020F4
:1044E000B80000202C020020F0B583B00746002061
:1044F000FFF756FFB7F90250C5F309053B8845EAB7
:104500008325ADB2BA68397B2846FFF795FF0026B0
:10451000002E33D148F2E80001F031F81A4800F0DB
:104520001EFB0028F4D101A9174800F048FB019CAC
:10453000637A0F2B07D0A389AB4211D0E37A002B0B
:10454000ECD00126EAE7B4F80D30AB4204D0237B6F
:10455000002BE3D00126E1E73B69E27A1A70F6E727
:10456000A27A033AD2B27B699A42A8BF1A467A610C
:1045700004F10E01386902F0EFFBDFE70120FFF7DD
:104580000FFF002003B0F0BD3002002008B538B99D
:10459000084B1B6803B19847074B00221A7008BDEF
:1045A000054B01221A70034B1B68002BF7D01046F5
:1045B0009847F4E758020020C800002030B585B0C5
:1045C00005460B4C606004F1080000F0C5FA0120BC
:1045D000FFF7DCFF01232374064B5B6833B10395BF
:1045E000054A0192054A029201A8984705B030BDDC
:1045F000C8000020580200201946000801460008A3
:1046000010B5044C0146204600F0C1FA204601F0E6
:104610001AF810BDD000002008B5002001F019F8EC
:1046200008BD000010B50C464A68054B1A601862B8
:10463000181D00F06DF82068FFF7C0FF10BD00BF27
:104640005802002010B584B003E00399124800F02E
:1046500092FA114800F083FAE0B9104B1B7CCBB101
:104660000E4C03A904F1080000F0A9FA01232374F9
:104670000B4B1B6A33B1039A029201A898479DF82D
:1046800004202274054B1B7C002BDED0039800F025
:104690003DF9DEE704B010BDD0000020C8000020C6
:1046A000580200202DE9F04180460D4617461E466F
:1046B0000020FFF76BFF0F4C6068A0F80980C572FF
:1046C0002A4639460C3002F047FB0B4B5B69002150
:1046D0000846984748F2E80000F0C0FF61688A7811
:1046E000033206F1080002F037FB0120FFF74EFF0E
:1046F000BDE8F081C800002058020020024B036092
:10470000024B0361704700BFA1470008E147000862
:10471000024B0360024B0361704700BF3948000839
:104720006D48000800B583B009E001A9084800F011
:1047300046FA084B1B690199186900F028FA0448E9
:1047400000F00DFA0028F0D003B05DF804FB00BFC4
:104750007C0200200000032008B500F097FF08BD90
:1047600008B50D4A0D4B136003F12001516003F1B0
:104770003001916003F13C01D16003F1440111610A
:1047800003F16001516103F1640191617033D36100
:1047900000F086FF08BD00BF0000032020000320BA
:1047A00038B504460B4D284600F0D6F90A4B5B6835
:1047B000A2681A60E268DA6005F108025A609D603A
:1047C00000F090FF2268054B9A606268DA60002072
:1047D00038BD00BFB8010320000003207C02002088
:1047E00008B5044B5B681B6801221A7200F082FF57
:1047F000002008BD0000032000B583B007E001A938
:10480000074800F0DCF9074B9B680198984704487B
:1048100000F0A5F90028F2D003B05DF804FB00BF5A
:10482000B80103207C02002008B5024BDB689847E2
:1048300008BD00BF7C02002038B50446084D28465C
:1048400000F08AF9074BDB68A2681A605D6000F02F
:104850006FFF2268044B1A6162685A61002038BDFC
:10486000D0010320000003207C02002008B5044B87
:10487000DB681B6810221A7200F062FF002008BD7E
:104880000000032008B5034BDA68034B1B6910686E
:10489000984708BD000003207C02002000B583B0CB
:1048A00007E001A9074800F08AF9074B5B69019806
:1048B0009847044800F053F90028F2D003B05DF89F
:1048C00004FB00BFD00103207C02002038B5044661
:1048D0000B4D284600F040F90A4800F03DF90A4B1C
:1048E0001B69A2689A60E268DA601D6122681A603A
:1048F00062685A6022695A6162699A6138BD00BF74
:104900009C0003207C0200200000032008B5014623
:10491000034800F03CF9034800F06CFF08BD00BFFD
:104920007C0200202547000810B5054C204600F009
:1049300013F9044B5B691C6000F074FF10BD00BFED
:10494000A4000320000003207047000000B583B0DE
:1049500006E001A9064800F032F90198FFF7F4FFDC
:10496000034800F0FCF80028F3D003B05DF804FB26
:10497000A40003200278024B1A7042785A707047E4
:104980009402002010B4EFF3108472B6012908D00D
:10499000074A53680343536084F310885DF8044B5F
:1049A0007047034A536823EA00035360F4E700BFEB
:1049B00094020020074BDA79824204D006498B42E8
:1049C00001D0083BF7E7824201D118467047002327
:1049D000FBE700BFF873FF1F0070FF1FEFF31083AA
:1049E00072B6034A42F8201083F31088704700BF64
:1049F000A002002030B4EFF3108572B6064B1C699C
:104A000004431C6103EBC1035A6902435A6185F3F5
:104A1000108830BC704700BFA0020020EFF3108167
:104A200072B6044A136823EA0003136081F3108806
:104A3000704700BF0C000020EFF3108172B6034AEC
:104A400013680343136081F3108870470C00002043
:104A5000EFF3108172B6034AD3690343D36181F344
:104A600010887047A0020020F8B5EFF310842E4B99
:104A70005D68284058601BE0013122E02B4F07EBB6
:104A8000C10188690340B3FA83F3C3F11F03012214
:104A900002FA03F6F6433040886172B63969314054
:104AA000396112BB84F31088204A52F823309847AA
:104AB0001D4A10681D4B1B690340526813421CD0ED
:104AC00000211A4B03EBC1035B6903401340D3D0B1
:104AD000164A02EBC10292691342CFD1134A02EB8C
:104AE000C1024FF0FF309061C8E7013A0F4901EB76
:104AF000C201486930404861D3E772B60A4A0B4B9D
:104B00001B6911680B405268134204D1074BDA69E4
:104B10001B6A1A4204D084F31088034B5D60F8BD11
:104B200000F08AFDF7E700BF0C000020A002002083
:104B300010B5084B1C6A186201E000F07EFD054BC1
:104B4000DA69186A0242F8D022EA0000D8611C62D1
:104B500010BD00BFA0020020006040607047EFF36E
:104B6000108372B60268824203D0002083F310885B
:104B700070470120FAE7EFF3108372B602680A600B
:104B8000486001600A68516083F310887047EFF352
:104B9000108372B6086042684A6041604A681160DA
:104BA00083F310887047EFF3108372B64268016890
:104BB000116002684168516083F31088704710B536
:104BC000EFF3108472B603680B600068FFF7EBFF29
:104BD00084F3108810BD000030B585B00446002372
:104BE000092B06DC04AA1A44002102F80C1C01332C
:104BF000F6E76368C3F1040204A901EB420209214C
:104C000002F80C1C5B00CB1A227A04A90B4403F8AF
:104C10000C2C0E4D002210212846FCF7EBF84FF02B
:104C2000FF330A2201A92068FDF770FB0122102141
:104C30002846FCF7DFF80220FBF776FC0022102163
:104C40002846FCF7D7F805B030BD00BF0008004883
:104C500070B584B004460023092B06DC04AA1A446C
:104C6000002102F80C1C0133F6E76368C3F104026B
:104C700004A901EB42020F2102F80C1C5B00C3F1F6
:104C8000090304AA1344012603F80C6C2A4D0022E0
:104C900010212846FCF7AEF84FF0FF330A2201A995
:104CA0002068FDF733FB324610212846FCF7A2F8B6
:104CB0003046FBF739FC002210212846FCF79AF811
:104CC0004FF47A70FBF730FC0023092B06DC04AAB2
:104CD0001A44002102F80C1C0133F6E76368C3F1A3
:104CE000040204A901EB42020F2102F80C1C5B0034
:104CF000C3F1090304AA1344002603F80C6C0E4DFB
:104D0000324610212846FCF775F84FF0FF330A228F
:104D100001A92068FDF7FAFA012210212846FCF7C4
:104D200069F80120FBF700FC324610212846FCF709
:104D300061F804B070BD00BF0008004870477047BC
:104D40007047704708B50430FFF746FF08BD10B53F
:104D50000446182101F09FFF204610BDF0B589B030
:104D600007460024032C07DCBB6853F824000430FA
:104D7000FFF76EFF0134F5E700244FF6FF739C4206
:104D800016D0BB685D6860230193029400230393EF
:104D900005932A6A01A9E869FDF7A3FD296AE86974
:104DA000FDF74AFE6420FBF7BFFB0A34A4B2E4E738
:104DB00009B0F0BD70472DE9F04383B006460F46B9
:104DC000154601230093436804681C1BA41001943A
:104DD000002C4ED16A461268144432689B1AB4EB18
:104DE000A30F48D3B4F1804F48D23368A7EB030830
:104DF000002C48D0B4F1804F43D2A00001F04DFF09
:104E000081462B6819EB080F01D049F8083030684B
:104E1000FFF7D0FF80463846FFF7CCFFA0EB080530
:104E2000404504D02A464146484601F0A0FF4D4483
:104E30000435D6F804803846FFF7BCFF07464046E5
:104E4000FFF7B8FFA0EB0708B84204D04246394646
:104E5000284601F08CFF4544306808B101F019FF85
:104E6000C6F80090756009EB8404B46003B0BDE837
:104E7000F08301AAAFE76FF04044B6E76FF040441B
:104E8000B3E701F01BFF4FF00009BAE708B543682C
:104E90008268934206D00A6803B11A6043680433FB
:104EA000436008BD0A461946FFF785FFF9E7000091
:104EB000F0B585B00546036840F8143FFFF78CFE57
:104EC00005F10806182001F0E8FE2B68544A02603C
:104ED00043600123836000230373032B04DCC218A7
:104EE000002151730133F8E70023032B04DCC218BF
:104EF000002151740133F8E74A4B036004A941F8DB
:104F0000100D3046FFF7C2FF242001F0C6FE2B68CB
:104F10006F68434A02604360022383600023037387
:104F2000032B04DCC218002151730133F8E700237E
:104F3000032B04DCC218002151740133F8E73A4B0B
:104F4000036000240483C761046204A941F80C0DC6
:104F50003046FFF79BFF1C2001F09FFE2B68304A74
:104F6000026043600323836004732346032B04DC45
:104F7000C218002151730133F8E70023032B04DC2E
:104F8000C218002151740133F8E7284B0360002355
:104F9000012B04DCC218002111760133F8E704A9C3
:104FA00041F8080D3046FFF771FF1C2001F075FE37
:104FB0002B681B4A02604360042383600023037351
:104FC000032B04DCC218002151730133F8E70023DE
:104FD000032B04DCC218002151740133F8E7144B91
:104FE00003600023032B04DCC21800211176013377
:104FF000F8E704A941F8040D3046FFF747FF002405
:10500000032C07DCAB6853F8240003689B689847BF
:105010000134F5E7FBF77CFAE86205B0F0BD00BFAC
:10502000E87100080870000828700008487000083F
:1050300068700008704770477047704708B50430C3
:10504000FFF7CAFD08BD10B50446182101F023FE84
:10505000204610BD70477047837E53B1038BB43335
:105060009BB20383B3F57A7F01D9642303830023C2
:105070008376C37E53B1038BB43B9BB20383632B14
:1050800002D84FF47A7303830023C376704708B5C0
:105090000430FFF7A1FD08BD08B5B1F5006F06D0DB
:1050A000B1F5805F06D00120FBF73EFA08BD012371
:1050B0008376F5E70123C376F5E710B5044624218E
:1050C00001F0E9FD204610BD70477047037E0BB12B
:1050D00000230376437E0BB100234376704708B567
:1050E0000430FFF779FD08BD08B5012905D0022974
:1050F00006D00120FBF718FA08BD01230376F6E776
:1051000001234376F5E710B504461C2101F0C3FDE9
:10511000204610BD70477047037E0BB10023037615
:10512000437E0BB100234376837E0BB1002383764D
:10513000C37E0BB10023C376704708B50430FFF778
:105140004BFD08BD08B5042909D010290AD0202933
:105150000BD040290CD00120FBF7E6F908BD012354
:105160000376F2E701234376F1E701238376F0E744
:105170000123C376EFE710B504461C2101F08BFD37
:10518000204610BD704708B500210120FFF732FC12
:1051900008BD000008B5064B93F89030052B05D0EC
:1051A000FEF7A6FD024B002283F8902008BD00BF49
:1051B000DC00002000B583B0054B0093054B019344
:1051C00069460548FFF750F903B05DF804FB00BFDE
:1051D000AC000320F7510008DD51000810B504466B
:1051E00040680830FEF75AFD10B90023237010BD47
:1051F00001232370FBE708B510B1012804D008BDD6
:105200000720FFF70BFCFAE70720FFF715FCF6E78E
:1052100008B50F4B1B68B3F1FF3F11D00D4A126860
:105220000D480370C3F307214170C3F30743837034
:10523000C270C2F307230371C2F30742427108BD73
:105240000020FFF7B7FB0028F9D10448F7E700BFBB
:105250008075FF1F8475FF1FC80200208070000842
:1052600030B58DB00024ADF81C40FFF736F8FFF7DD
:10527000CFFF0546024606212046FEF7AEFF6A79BB
:105280003F4B1A722A795A72EA789A72AA78DA72BD
:105290006A781A732A785A734EF66E530993394B0B
:1052A0001B680CAA42F8103D06212E20FEF795FF40
:1052B000354D05F1080210211820FEF78EFF05F18B
:1052C000180210210820FEF788FF18210120FEF7A0
:1052D000B4FFFEF779FE0DF12A0301930BAB0093A7
:1052E0000DF12E03072221460120FEF7E1FDBDF856
:1052F0002C10BDF82E00254B009307232246FEF705
:1053000037FFBDF82A10BDF82E0007AB009302232B
:105310002246FEF72DFF022211462046FEF7FDFF32
:105320001B4D2C702046FEF75DFD01236B70EC7069
:1053300008226A751022AA752C75164AAA61AB70EC
:10534000204604E0124B034418710130C0B20F280C
:10535000F8D9002204920F4B039302921023019379
:1053600008230093134601210846FEF761FD084B10
:105370009B780BB90DB030BDFEF705FEFAE700BF14
:10538000140000208075FF1F807000080072000864
:10539000DC00002007B2010070B588B00446012887
:1053A00028D04FF47A664FF4C8651E4B93F89100ED
:1053B00000F02EFD022C23D01A4B83F8904093F876
:1053C0002820002006900590293304930392164B61
:1053D0000293082301930090034632462946FEF7C4
:1053E000A8FC12490E20FEF7A1FD08B9012C11D02E
:1053F00008B070BD0B4BB3F89450B3F89660D4E787
:10540000084B93F89030013BDBB2012BD4D8FEF768
:105410006FFCD1E70649034B93F8910000F05CFD67
:10542000E6E700BFDC000020A870000814000020A0
:1054300046E0010030B58DB06C46234D0FCD0FC452
:105440000FCD0FC495E80F0007C42370FFF7B2FE1D
:1054500000210220FFF796FA1C490220FFF7BEFA4E
:105460006846FEF78DFFFFF7FBFEFEF7E7FB184CE3
:10547000002584F890504FF6FF73E38415492846C1
:10548000FFF7ACFA0620FEF701FF01F03BF9124BE3
:105490002A4604F19101284600F088FC0F4B2A4669
:1054A00004F19201284600F081FC84F8295084F828
:1054B00028508023A4F89430A023A4F8963001202B
:1054C000FFF76AFF0DB030BDB070000889440008D6
:1054D000DC00002095510008875100088551000824
:1054E00038B504464378052B03D03E2B18D0012055
:1054F00038BD82881A4BDB8C9A420BD00120FFF713
:105500004BFF184801230370154BDB8C438001F0DF
:10551000F8F8ECE7124B0022DA8483F89020EDE7EC
:10552000C378012BE3D10E4D95F8910000F070FC8B
:1055300095F89030042B0ED0094B052283F890206B
:10554000B4F80530064AD38406480022027043802E
:1055500001F0D7F8CBE7062285F89020F0E700BFEE
:10556000DC0000204806002008B500210420FFF7D9
:1055700041FA08BD08B50220FFF76AFA08BD08B570
:105580000220FFF7D5FA08BD704700B583B04FF091
:10559000B042936843F40043936002238DF80430D3
:1055A00000238DF8053001A8FFF7E4F903B05DF89A
:1055B00004FB000010B588B0FFF7D2F80F490320B4
:1055C000FFF70CFA0E4C00940E4B019369460E48FF
:1055D000FFF728F804F58673029304F50673039326
:1055E00004F54974049440F23C53059302A8FFF774
:1055F0006DF9FFF7B1F808B010BD00BF45460008CF
:10560000D8010320895500080D56000808B5FFF79A
:105610008BF9FFF70FFF01210846FFF7B3F908BD2B
:1056200008B5FFF7B2FF0349002000F025FBFFF7A4
:10563000C1FF08BD0C060020704708B54FF0FF30D1
:10564000FFF712FA08BD08B500210820FFF7D2F9CC
:1056500008BD08B50220FFF7FBF908BD08B5022018
:10566000FFF766FA08BD000010B5064C636843F406
:1056700000236360044B1B6898474FF40023A3602A
:1056800010BD00BF000C0058D002002040BF20BF5A
:10569000024AD36843F40043D360704700040058C3
:1056A00000B583B04FF0B0431A6D42F480121A6512
:1056B0001B6D03F480130193019B094B1A6842F0A0
:1056C00001021A601A6842F480321A602C20FBF73B
:1056D0008BFA2D20FBF788FA03B05DF804FB00BFBE
:1056E000000C0058024A536823F0010353607047CE
:1056F000000C0058024B4FF480329A60704700BF94
:10570000000C005808B5044A536843F40013536072
:10571000FFF78AF808BD00BF000C005808B5FFF776
:105720006BF8024B01229A6008BD00BF000C0058C4
:10573000024A536823F0020353607047000C00587C
:10574000044B4FF400329A605A6822F400325A60D7
:10575000704700BF000C005808B5044A536843F472
:1057600000335360FFF78EF808BD00BF000C0058EF
:1057700008B51A4BDB6813F0020F04D1174B5B68B6
:1057800013F4003F1ED0154BDB6813F0020F04D159
:10579000124B5B6813F4003F17D0104BDB6813F01B
:1057A000080F04D10D4B5B6813F4002F10D00B4B86
:1057B000DB6813F0200F04D1084B5B6813F4001F63
:1057C00009D008BDFFF7C8FFFBE7FFF7C5FFF8E703
:1057D000FFF74AFFF5E7FFF795FFF2E7000C0058E7
:1057E00008B5FFF75BF8024B02229A6008BD00BFC4
:1057F000000C005808B5094BDB6813F0080F05D101
:105800008047064B4FF400229A6008BD044B186095
:10581000024A536823F400235360F6E7000C005853
:10582000D0020020024A536823F0080353607047F7
:10583000000C005808B5FFF789F8024B08229A605F
:1058400008BD00BF000C005808B5144BDB6913F00D
:10585000020F04D0114B5B6813F0020F14D00F4BF2
:10586000DB6913F0010F04D00C4B5B6813F0010FE0
:105870000DD00A4BDB6913F0080F04D0074B5B68AF
:1058800013F0080F06D008BDFFF7AAFFFBE7FFF7EC
:1058900045FFF8E7FFF7CEFFF5E700BF000C005823
:1058A000064A936A9BB2906A80B203E0034B9A6AFD
:1058B000034690B28342F9D1704700BF00280040F0
:1058C00070B401EB4103DA000C4B13445B7DDBB297
:1058D000062B05D003EB4302D400084A224410757E
:1058E000064A44002618F50015446B75297501EB2E
:1058F0004101CB001A44507570BC70477401002000
:10590000F0B4164B93F89030DBB28B421AD0134BA5
:105910004A005518EC001C44247DE4B204EB440614
:10592000F5001D44687545002F18FE0037461E44DB
:1059300071753E461E4434751144CA0013441875EF
:10594000F0BC7047054B00EB4004E2001A4451756F
:1059500001EB4101CA0013441875F1E774010020FE
:1059600070B4244B93F89030DBB283422AD0214D9F
:1059700043000344DA002A44147D537DDBB2567D94
:10598000F6B204EB4402D40025446E75062B0BD00E
:10599000184A00EB4005EC001444247DE4B203EB0C
:1059A0004303DD002A441475124A00EB4000C30093
:1059B00013440120187392F89030DBB2062B10D0FC
:1059C00070BC70470B4B93F89020D2B283F89120B3
:1059D00000EB4004E2001A44527DD2B283F89020DA
:1059E000E2E70029ECD113464FF0FF32C3F89420D0
:1059F000E6E700BF7401002008B5114BD3F89430DE
:105A0000B3F1FF3F1AD0FFF74BFF0D4BD3F89430A3
:105A100083420BD30A4BD3F89430181A094B9A7867
:105A200000FB02F0DB78D84080B208BD054B1B8834
:105A30001B1A034AD2F894001844EFE70020F3E75A
:105A400074010020D402002070B5344B93F89030DC
:105A5000DBB2062B23D00446FFF7CEFF05462F4BC3
:105A600062001019C10019448868284488602244E3
:105A7000D1001944886893F8902002EB4202D100CB
:105A80000B449B6883423AD8244B93F89010C9B2D8
:105A900001EB4106F20013445B7DDBB221E01F4BBA
:105AA00093F89020D2B283F8912083F8900000EB15
:105AB0004000C2001A44062151754FF0FF32C3F86E
:105AC00094200025284670BD144B01EB4101CA000B
:105AD0001A44517DC9B201EB4106F20013445B7DCB
